:1000000010C01FC01FC01DC01CC01BC01AC019C01B
:1000100018C017C016C015C014C013C012C011C03C
:1000200010C011241FBECFE5D2E0DEBFCDBF20E05F
:10003000A0E6B0E001C01D92A236B207E1F72FD0D2
:100040004CC0DECF1F920F920FB60F9211248F93E8
:10005000CA990EC0C89905C08091610080958093AF
:100060006100C99905C0809160008095809360000F
:100070008F910F900FBE0F901F90189587B38760D8
:1000800087BB8AB3887F8ABB8BB387608BBB8BB7F8
:1000900080618BBF82B3836082BB78940895EEDF6A
:1000A000CA9917C08091610080FDC09A80FFC098F6
:1000B0009091600088B392708D7F892B88BB2091CE
:1000C00061008091600098B3822784709B7F892BA8
:0E00D00002C088B3887F88BBE3CFF894FFCFCF
:00000001FF
